{
  "_format": "hh-sol-artifact-1",
  "contractName": "NFTMarketplace",
  "sourceName": "contracts/NFTMarketPlace.sol",
  "address": "0x09371cB1a5aea6d4bE0a7bfb60c1E515BC9D40B3",
  "abi": [
    {
      "inputs": [],
      "stateMutability": "nonpayable",
      "type": "constructor"
    },
    {
      "anonymous": false,
      "inputs": [
        {
          "indexed": true,
          "internalType": "address",
          "name": "owner",
          "type": "address"
        },
        {
          "indexed": true,
          "internalType": "address",
          "name": "approved",
          "type": "address"
        },
        {
          "indexed": true,
          "internalType": "uint256",
          "name": "tokenId",
          "type": "uint256"
        }
      ],
      "name": "Approval",
      "type": "event"
    },
    {
      "anonymous": false,
      "inputs": [
        {
          "indexed": true,
          "internalType": "address",
          "name": "owner",
          "type": "address"
        },
        {
          "indexed": true,
          "internalType": "address",
          "name": "operator",
          "type": "address"
        },
        {
          "indexed": false,
          "internalType": "bool",
          "name": "approved",
          "type": "bool"
        }
      ],
      "name": "ApprovalForAll",
      "type": "event"
    },
    {
      "anonymous": false,
      "inputs": [
        {
          "indexed": true,
          "internalType": "address",
          "name": "from",
          "type": "address"
        },
        {
          "indexed": true,
          "internalType": "address",
          "name": "to",
          "type": "address"
        },
        {
          "indexed": true,
          "internalType": "uint256",
          "name": "tokenId",
          "type": "uint256"
        }
      ],
      "name": "Transfer",
      "type": "event"
    },
    {
      "inputs": [
        {
          "internalType": "address",
          "name": "to",
          "type": "address"
        },
        {
          "internalType": "uint256",
          "name": "tokenId",
          "type": "uint256"
        }
      ],
      "name": "approve",
      "outputs": [],
      "stateMutability": "nonpayable",
      "type": "function"
    },
    {
      "inputs": [
        {
          "internalType": "address",
          "name": "owner",
          "type": "address"
        }
      ],
      "name": "balanceOf",
      "outputs": [
        {
          "internalType": "uint256",
          "name": "",
          "type": "uint256"
        }
      ],
      "stateMutability": "view",
      "type": "function"
    },
    {
      "inputs": [
        {
          "internalType": "string",
          "name": "tokenURI",
          "type": "string"
        },
        {
          "internalType": "uint256",
          "name": "price",
          "type": "uint256"
        }
      ],
      "name": "createToken",
      "outputs": [
        {
          "internalType": "uint256",
          "name": "",
          "type": "uint256"
        }
      ],
      "stateMutability": "payable",
      "type": "function"
    },
    {
      "inputs": [
        {
          "internalType": "uint256",
          "name": "tokenId",
          "type": "uint256"
        }
      ],
      "name": "executeSale",
      "outputs": [],
      "stateMutability": "payable",
      "type": "function"
    },
    {
      "inputs": [],
      "name": "getAllNFTs",
      "outputs": [
        {
          "components": [
            {
              "internalType": "uint256",
              "name": "tokenId",
              "type": "uint256"
            },
            {
              "internalType": "address payable",
              "name": "owner",
              "type": "address"
            },
            {
              "internalType": "address payable",
              "name": "seller",
              "type": "address"
            },
            {
              "internalType": "uint256",
              "name": "price",
              "type": "uint256"
            },
            {
              "internalType": "bool",
              "name": "currentlyListed",
              "type": "bool"
            }
          ],
          "internalType": "struct NFTMarketplace.ListedToken[]",
          "name": "",
          "type": "tuple[]"
        }
      ],
      "stateMutability": "view",
      "type": "function"
    },
    {
      "inputs": [
        {
          "internalType": "uint256",
          "name": "tokenId",
          "type": "uint256"
        }
      ],
      "name": "getApproved",
      "outputs": [
        {
          "internalType": "address",
          "name": "",
          "type": "address"
        }
      ],
      "stateMutability": "view",
      "type": "function"
    },
    {
      "inputs": [],
      "name": "getCurrentToken",
      "outputs": [
        {
          "internalType": "uint256",
          "name": "",
          "type": "uint256"
        }
      ],
      "stateMutability": "view",
      "type": "function"
    },
    {
      "inputs": [],
      "name": "getLatestIdToListedToken",
      "outputs": [
        {
          "components": [
            {
              "internalType": "uint256",
              "name": "tokenId",
              "type": "uint256"
            },
            {
              "internalType": "address payable",
              "name": "owner",
              "type": "address"
            },
            {
              "internalType": "address payable",
              "name": "seller",
              "type": "address"
            },
            {
              "internalType": "uint256",
              "name": "price",
              "type": "uint256"
            },
            {
              "internalType": "bool",
              "name": "currentlyListed",
              "type": "bool"
            }
          ],
          "internalType": "struct NFTMarketplace.ListedToken",
          "name": "",
          "type": "tuple"
        }
      ],
      "stateMutability": "view",
      "type": "function"
    },
    {
      "inputs": [],
      "name": "getListPrice",
      "outputs": [
        {
          "internalType": "uint256",
          "name": "",
          "type": "uint256"
        }
      ],
      "stateMutability": "view",
      "type": "function"
    },
    {
      "inputs": [
        {
          "internalType": "uint256",
          "name": "tokenId",
          "type": "uint256"
        }
      ],
      "name": "getListedForTokenId",
      "outputs": [
        {
          "components": [
            {
              "internalType": "uint256",
              "name": "tokenId",
              "type": "uint256"
            },
            {
              "internalType": "address payable",
              "name": "owner",
              "type": "address"
            },
            {
              "internalType": "address payable",
              "name": "seller",
              "type": "address"
            },
            {
              "internalType": "uint256",
              "name": "price",
              "type": "uint256"
            },
            {
              "internalType": "bool",
              "name": "currentlyListed",
              "type": "bool"
            }
          ],
          "internalType": "struct NFTMarketplace.ListedToken",
          "name": "",
          "type": "tuple"
        }
      ],
      "stateMutability": "view",
      "type": "function"
    },
    {
      "inputs": [],
      "name": "getMyNFTs",
      "outputs": [
        {
          "components": [
            {
              "internalType": "uint256",
              "name": "tokenId",
              "type": "uint256"
            },
            {
              "internalType": "address payable",
              "name": "owner",
              "type": "address"
            },
            {
              "internalType": "address payable",
              "name": "seller",
              "type": "address"
            },
            {
              "internalType": "uint256",
              "name": "price",
              "type": "uint256"
            },
            {
              "internalType": "bool",
              "name": "currentlyListed",
              "type": "bool"
            }
          ],
          "internalType": "struct NFTMarketplace.ListedToken[]",
          "name": "",
          "type": "tuple[]"
        }
      ],
      "stateMutability": "view",
      "type": "function"
    },
    {
      "inputs": [
        {
          "internalType": "address",
          "name": "owner",
          "type": "address"
        },
        {
          "internalType": "address",
          "name": "operator",
          "type": "address"
        }
      ],
      "name": "isApprovedForAll",
      "outputs": [
        {
          "internalType": "bool",
          "name": "",
          "type": "bool"
        }
      ],
      "stateMutability": "view",
      "type": "function"
    },
    {
      "inputs": [],
      "name": "name",
      "outputs": [
        {
          "internalType": "string",
          "name": "",
          "type": "string"
        }
      ],
      "stateMutability": "view",
      "type": "function"
    },
    {
      "inputs": [
        {
          "internalType": "uint256",
          "name": "tokenId",
          "type": "uint256"
        }
      ],
      "name": "ownerOf",
      "outputs": [
        {
          "internalType": "address",
          "name": "",
          "type": "address"
        }
      ],
      "stateMutability": "view",
      "type": "function"
    },
    {
      "inputs": [
        {
          "internalType": "address",
          "name": "from",
          "type": "address"
        },
        {
          "internalType": "address",
          "name": "to",
          "type": "address"
        },
        {
          "internalType": "uint256",
          "name": "tokenId",
          "type": "uint256"
        }
      ],
      "name": "safeTransferFrom",
      "outputs": [],
      "stateMutability": "nonpayable",
      "type": "function"
    },
    {
      "inputs": [
        {
          "internalType": "address",
          "name": "from",
          "type": "address"
        },
        {
          "internalType": "address",
          "name": "to",
          "type": "address"
        },
        {
          "internalType": "uint256",
          "name": "tokenId",
          "type": "uint256"
        },
        {
          "internalType": "bytes",
          "name": "data",
          "type": "bytes"
        }
      ],
      "name": "safeTransferFrom",
      "outputs": [],
      "stateMutability": "nonpayable",
      "type": "function"
    },
    {
      "inputs": [
        {
          "internalType": "address",
          "name": "operator",
          "type": "address"
        },
        {
          "internalType": "bool",
          "name": "approved",
          "type": "bool"
        }
      ],
      "name": "setApprovalForAll",
      "outputs": [],
      "stateMutability": "nonpayable",
      "type": "function"
    },
    {
      "inputs": [
        {
          "internalType": "bytes4",
          "name": "interfaceId",
          "type": "bytes4"
        }
      ],
      "name": "supportsInterface",
      "outputs": [
        {
          "internalType": "bool",
          "name": "",
          "type": "bool"
        }
      ],
      "stateMutability": "view",
      "type": "function"
    },
    {
      "inputs": [],
      "name": "symbol",
      "outputs": [
        {
          "internalType": "string",
          "name": "",
          "type": "string"
        }
      ],
      "stateMutability": "view",
      "type": "function"
    },
    {
      "inputs": [
        {
          "internalType": "uint256",
          "name": "tokenId",
          "type": "uint256"
        }
      ],
      "name": "tokenURI",
      "outputs": [
        {
          "internalType": "string",
          "name": "",
          "type": "string"
        }
      ],
      "stateMutability": "view",
      "type": "function"
    },
    {
      "inputs": [
        {
          "internalType": "address",
          "name": "from",
          "type": "address"
        },
        {
          "internalType": "address",
          "name": "to",
          "type": "address"
        },
        {
          "internalType": "uint256",
          "name": "tokenId",
          "type": "uint256"
        }
      ],
      "name": "transferFrom",
      "outputs": [],
      "stateMutability": "nonpayable",
      "type": "function"
    },
    {
      "inputs": [
        {
          "internalType": "uint256",
          "name": "_listPrice",
          "type": "uint256"
        }
      ],
      "name": "updateListPrice",
      "outputs": [],
      "stateMutability": "payable",
      "type": "function"
    }
  ],
  "bytecode": "0x6080604052662386f26fc10000600a553480156200001c57600080fd5b506040518060400160405280600e81526020017f4e46544d61726b6574706c6163650000000000000000000000000000000000008152506040518060400160405280600481526020017f4e46544d0000000000000000000000000000000000000000000000000000000081525081600090816200009a919062000370565b508060019081620000ac919062000370565b50505033600760006101000a81548173ffffffffffffffffffffffffffffffffffffffff021916908373ffffffffffffffffffffffffffffffffffffffff16021790555062000457565b600081519050919050565b7f4e487b7100000000000000000000000000000000000000000000000000000000600052604160045260246000fd5b7f4e487b7100000000000000000000000000000000000000000000000000000000600052602260045260246000fd5b600060028204905060018216806200017857607f821691505b6020821081036200018e576200018d62000130565b5b50919050565b60008190508160005260206000209050919050565b60006020601f8301049050919050565b600082821b905092915050565b600060088302620001f87fffffffffffffffffffffffffffffffffffffffffffffffffffffffffffffffff82620001b9565b620002048683620001b9565b95508019841693508086168417925050509392505050565b6000819050919050565b6000819050919050565b6000620002516200024b62000245846200021c565b62000226565b6200021c565b9050919050565b6000819050919050565b6200026d8362000230565b620002856200027c8262000258565b848454620001c6565b825550505050565b600090565b6200029c6200028d565b620002a981848462000262565b505050565b5b81811015620002d157620002c560008262000292565b600181019050620002af565b5050565b601f8211156200032057620002ea8162000194565b620002f584620001a9565b8101602085101562000305578190505b6200031d6200031485620001a9565b830182620002ae565b50505b505050565b600082821c905092915050565b6000620003456000198460080262000325565b1980831691505092915050565b600062000360838362000332565b9150826002028217905092915050565b6200037b82620000f6565b67ffffffffffffffff81111562000397576200039662000101565b5b620003a382546200015f565b620003b0828285620002d5565b600060209050601f831160018114620003e85760008415620003d3578287015190505b620003df858262000352565b8655506200044f565b601f198416620003f88662000194565b60005b828110156200042257848901518255600182019150602085019450602081019050620003fb565b868310156200044257848901516200043e601f89168262000332565b8355505b6001600288020188555050505b505050505050565b613e9180620004676000396000f3fe6080604052600436106101355760003560e01c806395d89b41116100ab578063c322579c1161006f578063c322579c14610430578063c87b56dd1461044c578063d1a88ae514610489578063e0391b09146104b4578063e985e9c5146104df578063ef2d17461461051c57610135565b806395d89b411461035a57806398c3df16146103855780639b1225c4146103c2578063a22cb465146103de578063b88d4fde1461040757610135565b806342842e0e116100fd57806342842e0e14610231578063629cb2e41461025a5780636352211e1461028557806368f1945f146102c257806370a08231146102ed57806372b3b6201461032a57610135565b806301ffc9a71461013a57806306fdde0314610177578063081812fc146101a2578063095ea7b3146101df57806323b872dd14610208575b600080fd5b34801561014657600080fd5b50610161600480360381019061015c9190612889565b610547565b60405161016e91906128d1565b60405180910390f35b34801561018357600080fd5b5061018c610629565b604051610199919061297c565b60405180910390f35b3480156101ae57600080fd5b506101c960048036038101906101c491906129d4565b6106bb565b6040516101d69190612a42565b60405180910390f35b3480156101eb57600080fd5b5061020660048036038101906102019190612a89565b610701565b005b34801561021457600080fd5b5061022f600480360381019061022a9190612ac9565b610818565b005b34801561023d57600080fd5b5061025860048036038101906102539190612ac9565b610878565b005b34801561026657600080fd5b5061026f610898565b60405161027c9190612c72565b60405180910390f35b34801561029157600080fd5b506102ac60048036038101906102a791906129d4565b610c74565b6040516102b99190612a42565b60405180910390f35b3480156102ce57600080fd5b506102d7610cfa565b6040516102e49190612ca3565b60405180910390f35b3480156102f957600080fd5b50610314600480360381019061030f9190612cbe565b610d04565b6040516103219190612ca3565b60405180910390f35b610344600480360381019061033f9190612e20565b610dbb565b6040516103519190612ca3565b60405180910390f35b34801561036657600080fd5b5061036f610e84565b60405161037c919061297c565b60405180910390f35b34801561039157600080fd5b506103ac60048036038101906103a791906129d4565b610f16565b6040516103b99190612ee4565b60405180910390f35b6103dc60048036038101906103d791906129d4565b61101e565b005b3480156103ea57600080fd5b5061040560048036038101906104009190612f2b565b611210565b005b34801561041357600080fd5b5061042e6004803603810190610429919061300c565b611226565b005b61044a600480360381019061044591906129d4565b611288565b005b34801561045857600080fd5b50610473600480360381019061046e91906129d4565b611322565b604051610480919061297c565b60405180910390f35b34801561049557600080fd5b5061049e611434565b6040516104ab9190612ee4565b60405180910390f35b3480156104c057600080fd5b506104c9611549565b6040516104d69190612c72565b60405180910390f35b3480156104eb57600080fd5b506105066004803603810190610501919061308f565b611717565b60405161051391906128d1565b60405180910390f35b34801561052857600080fd5b506105316117ab565b60405161053e9190612ca3565b60405180910390f35b60007f80ac58cd000000000000000000000000000000000000000000000000000000007bffffffffffffffffffffffffffffffffffffffffffffffffffffffff1916827bffffffffffffffffffffffffffffffffffffffffffffffffffffffff1916148061061257507f5b5e139f000000000000000000000000000000000000000000000000000000007bffffffffffffffffffffffffffffffffffffffffffffffffffffffff1916827bffffffffffffffffffffffffffffffffffffffffffffffffffffffff1916145b806106225750610621826117bc565b5b9050919050565b606060008054610638906130fe565b80601f0160208091040260200160405190810160405280929190818152602001828054610664906130fe565b80156106b15780601f10610686576101008083540402835291602001916106b1565b820191906000526020600020905b81548152906001019060200180831161069457829003601f168201915b5050505050905090565b60006106c682611826565b6004600083815260200190815260200160002060009054906101000a900473ffffffffffffffffffffffffffffffffffffffff169050919050565b600061070c82610c74565b90508073ffffffffffffffffffffffffffffffffffffffff168373ffffffffffffffffffffffffffffffffffffffff160361077c576040517f08c379a0000000000000000000000000000000000000000000000000000000008152600401610773906131a1565b60405180910390fd5b8073ffffffffffffffffffffffffffffffffffffffff1661079b611871565b73ffffffffffffffffffffffffffffffffffffffff1614806107ca57506107c9816107c4611871565b611717565b5b610809576040517f08c379a000000000000000000000000000000000000000000000000000000000815260040161080090613233565b60405180910390fd5b6108138383611879565b505050565b610829610823611871565b82611932565b610868576040517f08c379a000000000000000000000000000000000000000000000000000000000815260040161085f906132c5565b60405180910390fd5b6108738383836119c7565b505050565b61089383838360405180602001604052806000815250611226565b505050565b606060006108a66008611cc0565b905060008060005b838110156109c6573373ffffffffffffffffffffffffffffffffffffffff16600b60006001846108de9190613314565b815260200190815260200160002060010160009054906101000a900473ffffffffffffffffffffffffffffffffffffffff1673ffffffffffffffffffffffffffffffffffffffff16148061099f57503373ffffffffffffffffffffffffffffffffffffffff16600b60006001846109559190613314565b815260200190815260200160002060020160009054906101000a900473ffffffffffffffffffffffffffffffffffffffff1673ffffffffffffffffffffffffffffffffffffffff16145b156109b35782806109af90613348565b9350505b80806109be90613348565b9150506108ae565b5060008267ffffffffffffffff8111156109e3576109e2612cf5565b5b604051908082528060200260200182016040528015610a1c57816020015b610a096127c0565b815260200190600190039081610a015790505b50905060005b84811015610c69573373ffffffffffffffffffffffffffffffffffffffff16600b6000600184610a529190613314565b815260200190815260200160002060010160009054906101000a900473ffffffffffffffffffffffffffffffffffffffff1673ffffffffffffffffffffffffffffffffffffffff161480610b1357503373ffffffffffffffffffffffffffffffffffffffff16600b6000600184610ac99190613314565b815260200190815260200160002060020160009054906101000a900473ffffffffffffffffffffffffffffffffffffffff1673ffffffffffffffffffffffffffffffffffffffff16145b15610c56576000600182610b279190613314565b90506000600b60008381526020019081526020016000209050806040518060a0016040529081600082015481526020016001820160009054906101000a900473ffffffffffffffffffffffffffffffffffffffff1673ffffffffffffffffffffffffffffffffffffffff1673ffffffffffffffffffffffffffffffffffffffff1681526020016002820160009054906101000a900473ffffffffffffffffffffffffffffffffffffffff1673ffffffffffffffffffffffffffffffffffffffff1673ffffffffffffffffffffffffffffffffffffffff168152602001600382015481526020016004820160009054906101000a900460ff161515151581525050848681518110610c3a57610c39613390565b5b60200260200101819052508480610c5090613348565b95505050505b8080610c6190613348565b915050610a22565b508094505050505090565b600080610c8083611cce565b9050600073ffffffffffffffffffffffffffffffffffffffff168173ffffffffffffffffffffffffffffffffffffffff1603610cf1576040517f08c379a0000000000000000000000000000000000000000000000000000000008152600401610ce89061340b565b60405180910390fd5b80915050919050565b6000600a54905090565b60008073ffffffffffffffffffffffffffffffffffffffff168273ffffffffffffffffffffffffffffffffffffffff1603610d74576040517f08c379a0000000000000000000000000000000000000000000000000000000008152600401610d6b9061349d565b60405180910390fd5b600360008373ffffffffffffffffffffffffffffffffffffffff1673ffffffffffffffffffffffffffffffffffffffff168152602001908152602001600020549050919050565b6000600a543414610e01576040517f08c379a0000000000000000000000000000000000000000000000000000000008152600401610df890613509565b60405180910390fd5b60008211610e44576040517f08c379a0000000000000000000000000000000000000000000000000000000008152600401610e3b9061359b565b60405180910390fd5b610e4e6008611d0b565b6000610e5a6008611cc0565b9050610e663382611d21565b610e708185611d3f565b610e7a8184611dac565b8091505092915050565b606060018054610e93906130fe565b80601f0160208091040260200160405190810160405280929190818152602001828054610ebf906130fe565b8015610f0c5780601f10610ee157610100808354040283529160200191610f0c565b820191906000526020600020905b815481529060010190602001808311610eef57829003601f168201915b5050505050905090565b610f1e6127c0565b600b60008381526020019081526020016000206040518060a0016040529081600082015481526020016001820160009054906101000a900473ffffffffffffffffffffffffffffffffffffffff1673ffffffffffffffffffffffffffffffffffffffff1673ffffffffffffffffffffffffffffffffffffffff1681526020016002820160009054906101000a900473ffffffffffffffffffffffffffffffffffffffff1673ffffffffffffffffffffffffffffffffffffffff1673ffffffffffffffffffffffffffffffffffffffff168152602001600382015481526020016004820160009054906101000a900460ff1615151515815250509050919050565b6000600b600083815260200190815260200160002060030154905080341461107b576040517f08c379a00000000000000000000000000000000000000000000000000000000081526004016110729061362d565b60405180910390fd5b6000600b600084815260200190815260200160002060020160009054906101000a900473ffffffffffffffffffffffffffffffffffffffff1690506001600b600085815260200190815260200160002060040160006101000a81548160ff02191690831515021790555033600b600085815260200190815260200160002060020160006101000a81548173ffffffffffffffffffffffffffffffffffffffff021916908373ffffffffffffffffffffffffffffffffffffffff1602179055506111446009611d0b565b61114f3033856119c7565b6111593084610701565b600760009054906101000a900473ffffffffffffffffffffffffffffffffffffffff1673ffffffffffffffffffffffffffffffffffffffff166108fc600a549081150290604051600060405180830381858888f193505050501580156111c3573d6000803e3d6000fd5b508073ffffffffffffffffffffffffffffffffffffffff166108fc349081150290604051600060405180830381858888f1935050505015801561120a573d6000803e3d6000fd5b50505050565b61122261121b611871565b8383611ee9565b5050565b611237611231611871565b83611932565b611276576040517f08c379a000000000000000000000000000000000000000000000000000000000815260040161126d906132c5565b60405180910390fd5b61128284848484612055565b50505050565b3373ffffffffffffffffffffffffffffffffffffffff16600760009054906101000a900473ffffffffffffffffffffffffffffffffffffffff1673ffffffffffffffffffffffffffffffffffffffff1614611318576040517f08c379a000000000000000000000000000000000000000000000000000000000815260040161130f906136bf565b60405180910390fd5b80600a8190555050565b606061132d82611826565b600060066000848152602001908152602001600020805461134d906130fe565b80601f0160208091040260200160405190810160405280929190818152602001828054611379906130fe565b80156113c65780601f1061139b576101008083540402835291602001916113c6565b820191906000526020600020905b8154815290600101906020018083116113a957829003601f168201915b5050505050905060006113d76120b1565b905060008151036113ec57819250505061142f565b60008251111561142157808260405160200161140992919061371b565b6040516020818303038152906040529250505061142f565b61142a846120c8565b925050505b919050565b61143c6127c0565b60006114486008611cc0565b9050600b60008281526020019081526020016000206040518060a0016040529081600082015481526020016001820160009054906101000a900473ffffffffffffffffffffffffffffffffffffffff1673ffffffffffffffffffffffffffffffffffffffff1673ffffffffffffffffffffffffffffffffffffffff1681526020016002820160009054906101000a900473ffffffffffffffffffffffffffffffffffffffff1673ffffffffffffffffffffffffffffffffffffffff1673ffffffffffffffffffffffffffffffffffffffff168152602001600382015481526020016004820160009054906101000a900460ff16151515158152505091505090565b606060006115576008611cc0565b905060008167ffffffffffffffff81111561157557611574612cf5565b5b6040519080825280602002602001820160405280156115ae57816020015b61159b6127c0565b8152602001906001900390816115935790505b5090506000805b8381101561170d5760006001826115cc9190613314565b90506000600b60008381526020019081526020016000209050806040518060a0016040529081600082015481526020016001820160009054906101000a900473ffffffffffffffffffffffffffffffffffffffff1673ffffffffffffffffffffffffffffffffffffffff1673ffffffffffffffffffffffffffffffffffffffff1681526020016002820160009054906101000a900473ffffffffffffffffffffffffffffffffffffffff1673ffffffffffffffffffffffffffffffffffffffff1673ffffffffffffffffffffffffffffffffffffffff168152602001600382015481526020016004820160009054906101000a900460ff1615151515815250508585815181106116df576116de613390565b5b602002602001018190525083806116f590613348565b9450505050808061170590613348565b9150506115b5565b5081935050505090565b6000600560008473ffffffffffffffffffffffffffffffffffffffff1673ffffffffffffffffffffffffffffffffffffffff16815260200190815260200160002060008373ffffffffffffffffffffffffffffffffffffffff1673ffffffffffffffffffffffffffffffffffffffff16815260200190815260200160002060009054906101000a900460ff16905092915050565b60006117b76008611cc0565b905090565b60007f01ffc9a7000000000000000000000000000000000000000000000000000000007bffffffffffffffffffffffffffffffffffffffffffffffffffffffff1916827bffffffffffffffffffffffffffffffffffffffffffffffffffffffff1916149050919050565b61182f81612130565b61186e576040517f08c379a00000000000000000000000000000000000000000000000000000000081526004016118659061340b565b60405180910390fd5b50565b600033905090565b816004600083815260200190815260200160002060006101000a81548173ffffffffffffffffffffffffffffffffffffffff021916908373ffffffffffffffffffffffffffffffffffffffff160217905550808273ffffffffffffffffffffffffffffffffffffffff166118ec83610c74565b73ffffffffffffffffffffffffffffffffffffffff167f8c5be1e5ebec7d5bd14f71427d1e84f3dd0314c0f7b2291e5b200ac8c7c3b92560405160405180910390a45050565b60008061193e83610c74565b90508073ffffffffffffffffffffffffffffffffffffffff168473ffffffffffffffffffffffffffffffffffffffff161480611980575061197f8185611717565b5b806119be57508373ffffffffffffffffffffffffffffffffffffffff166119a6846106bb565b73ffffffffffffffffffffffffffffffffffffffff16145b91505092915050565b8273ffffffffffffffffffffffffffffffffffffffff166119e782610c74565b73ffffffffffffffffffffffffffffffffffffffff1614611a3d576040517f08c379a0000000000000000000000000000000000000000000000000000000008152600401611a34906137b1565b60405180910390fd5b600073ffffffffffffffffffffffffffffffffffffffff168273ffffffffffffffffffffffffffffffffffffffff1603611aac576040517f08c379a0000000000000000000000000000000000000000000000000000000008152600401611aa390613843565b60405180910390fd5b611ab98383836001612171565b8273ffffffffffffffffffffffffffffffffffffffff16611ad982610c74565b73ffffffffffffffffffffffffffffffffffffffff1614611b2f576040517f08c379a0000000000000000000000000000000000000000000000000000000008152600401611b26906137b1565b60405180910390fd5b6004600082815260200190815260200160002060006101000a81549073ffffffffffffffffffffffffffffffffffffffff02191690556001600360008573ffffffffffffffffffffffffffffffffffffffff1673ffffffffffffffffffffffffffffffffffffffff168152602001908152602001600020600082825403925050819055506001600360008473ffffffffffffffffffffffffffffffffffffffff1673ffffffffffffffffffffffffffffffffffffffff16815260200190815260200160002060008282540192505081905550816002600083815260200190815260200160002060006101000a81548173ffffffffffffffffffffffffffffffffffffffff021916908373ffffffffffffffffffffffffffffffffffffffff160217905550808273ffffffffffffffffffffffffffffffffffffffff168473ffffffffffffffffffffffffffffffffffffffff167fddf252ad1be2c89b69c2b068fc378daa952ba7f163c4a11628f55a4df523b3ef60405160405180910390a4611cbb8383836001612177565b505050565b600081600001549050919050565b60006002600083815260200190815260200160002060009054906101000a900473ffffffffffffffffffffffffffffffffffffffff169050919050565b6001816000016000828254019250508190555050565b611d3b82826040518060200160405280600081525061217d565b5050565b611d4882612130565b611d87576040517f08c379a0000000000000000000000000000000000000000000000000000000008152600401611d7e906138d5565b60405180910390fd5b80600660008481526020019081526020016000209081611da79190613aa1565b505050565b6040518060a001604052808381526020013073ffffffffffffffffffffffffffffffffffffffff1681526020013373ffffffffffffffffffffffffffffffffffffffff16815260200182815260200160011515815250600b60008481526020019081526020016000206000820151816000015560208201518160010160006101000a81548173ffffffffffffffffffffffffffffffffffffffff021916908373ffffffffffffffffffffffffffffffffffffffff16021790555060408201518160020160006101000a81548173ffffffffffffffffffffffffffffffffffffffff021916908373ffffffffffffffffffffffffffffffffffffffff1602179055506060820151816003015560808201518160040160006101000a81548160ff021916908315150217905550905050611ee53330846119c7565b5050565b8173ffffffffffffffffffffffffffffffffffffffff168373ffffffffffffffffffffffffffffffffffffffff1603611f57576040517f08c379a0000000000000000000000000000000000000000000000000000000008152600401611f4e90613bbf565b60405180910390fd5b80600560008573ffffffffffffffffffffffffffffffffffffffff1673ffffffffffffffffffffffffffffffffffffffff16815260200190815260200160002060008473ffffffffffffffffffffffffffffffffffffffff1673ffffffffffffffffffffffffffffffffffffffff16815260200190815260200160002060006101000a81548160ff0219169083151502179055508173ffffffffffffffffffffffffffffffffffffffff168373ffffffffffffffffffffffffffffffffffffffff167f17307eab39ab6107e8899845ad3d59bd9653f200f220920489ca2b5937696c318360405161204891906128d1565b60405180910390a3505050565b6120608484846119c7565b61206c848484846121d8565b6120ab576040517f08c379a00000000000000000000000000000000000000000000000000000000081526004016120a290613c51565b60405180910390fd5b50505050565b606060405180602001604052806000815250905090565b60606120d382611826565b60006120dd6120b1565b905060008151116120fd5760405180602001604052806000815250612128565b806121078461235f565b60405160200161211892919061371b565b6040516020818303038152906040525b915050919050565b60008073ffffffffffffffffffffffffffffffffffffffff1661215283611cce565b73ffffffffffffffffffffffffffffffffffffffff1614159050919050565b50505050565b50505050565b612187838361242d565b61219460008484846121d8565b6121d3576040517f08c379a00000000000000000000000000000000000000000000000000000000081526004016121ca90613c51565b60405180910390fd5b505050565b60006121f98473ffffffffffffffffffffffffffffffffffffffff1661264a565b15612352578373ffffffffffffffffffffffffffffffffffffffff1663150b7a02612222611871565b8786866040518563ffffffff1660e01b81526004016122449493929190613cc6565b6020604051808303816000875af192505050801561228057506040513d601f19601f8201168201806040525081019061227d9190613d27565b60015b612302573d80600081146122b0576040519150601f19603f3d011682016040523d82523d6000602084013e6122b5565b606091505b5060008151036122fa576040517f08c379a00000000000000000000000000000000000000000000000000000000081526004016122f190613c51565b60405180910390fd5b805181602001fd5b63150b7a0260e01b7bffffffffffffffffffffffffffffffffffffffffffffffffffffffff1916817bffffffffffffffffffffffffffffffffffffffffffffffffffffffff191614915050612357565b600190505b949350505050565b60606000600161236e8461266d565b01905060008167ffffffffffffffff81111561238d5761238c612cf5565b5b6040519080825280601f01601f1916602001820160405280156123bf5781602001600182028036833780820191505090505b509050600082602001820190505b600115612422578080600190039150507f3031323334353637383961626364656600000000000000000000000000000000600a86061a8153600a858161241657612415613d54565b5b049450600085036123cd575b819350505050919050565b600073ffffffffffffffffffffffffffffffffffffffff168273ffffffffffffffffffffffffffffffffffffffff160361249c576040517f08c379a000000000000000000000000000000000000000000000000000000000815260040161249390613dcf565b60405180910390fd5b6124a581612130565b156124e5576040517f08c379a00000000000000000000000000000000000000000000000000000000081526004016124dc90613e3b565b60405180910390fd5b6124f3600083836001612171565b6124fc81612130565b1561253c576040517f08c379a000000000000000000000000000000000000000000000000000000000815260040161253390613e3b565b60405180910390fd5b6001600360008473ffffffffffffffffffffffffffffffffffffffff1673ffffffffffffffffffffffffffffffffffffffff16815260200190815260200160002060008282540192505081905550816002600083815260200190815260200160002060006101000a81548173ffffffffffffffffffffffffffffffffffffffff021916908373ffffffffffffffffffffffffffffffffffffffff160217905550808273ffffffffffffffffffffffffffffffffffffffff16600073ffffffffffffffffffffffffffffffffffffffff167fddf252ad1be2c89b69c2b068fc378daa952ba7f163c4a11628f55a4df523b3ef60405160405180910390a4612646600083836001612177565b5050565b6000808273ffffffffffffffffffffffffffffffffffffffff163b119050919050565b600080600090507a184f03e93ff9f4daa797ed6e38ed64bf6a1f01000000000000000083106126cb577a184f03e93ff9f4daa797ed6e38ed64bf6a1f01000000000000000083816126c1576126c0613d54565b5b0492506040810190505b6d04ee2d6d415b85acef81000000008310612708576d04ee2d6d415b85acef810000000083816126fe576126fd613d54565b5b0492506020810190505b662386f26fc10000831061273757662386f26fc10000838161272d5761272c613d54565b5b0492506010810190505b6305f5e1008310612760576305f5e100838161275657612755613d54565b5b0492506008810190505b612710831061278557612710838161277b5761277a613d54565b5b0492506004810190505b606483106127a8576064838161279e5761279d613d54565b5b0492506002810190505b600a83106127b7576001810190505b80915050919050565b6040518060a0016040528060008152602001600073ffffffffffffffffffffffffffffffffffffffff168152602001600073ffffffffffffffffffffffffffffffffffffffff168152602001600081526020016000151581525090565b6000604051905090565b600080fd5b600080fd5b60007fffffffff0000000000000000000000000000000000000000000000000000000082169050919050565b61286681612831565b811461287157600080fd5b50565b6000813590506128838161285d565b92915050565b60006020828403121561289f5761289e612827565b5b60006128ad84828501612874565b91505092915050565b60008115159050919050565b6128cb816128b6565b82525050565b60006020820190506128e660008301846128c2565b92915050565b600081519050919050565b600082825260208201905092915050565b60005b8381101561292657808201518184015260208101905061290b565b60008484015250505050565b6000601f19601f8301169050919050565b600061294e826128ec565b61295881856128f7565b9350612968818560208601612908565b61297181612932565b840191505092915050565b600060208201905081810360008301526129968184612943565b905092915050565b6000819050919050565b6129b18161299e565b81146129bc57600080fd5b50565b6000813590506129ce816129a8565b92915050565b6000602082840312156129ea576129e9612827565b5b60006129f8848285016129bf565b91505092915050565b600073ffffffffffffffffffffffffffffffffffffffff82169050919050565b6000612a2c82612a01565b9050919050565b612a3c81612a21565b82525050565b6000602082019050612a576000830184612a33565b92915050565b612a6681612a21565b8114612a7157600080fd5b50565b600081359050612a8381612a5d565b92915050565b60008060408385031215612aa057612a9f612827565b5b6000612aae85828601612a74565b9250506020612abf858286016129bf565b9150509250929050565b600080600060608486031215612ae257612ae1612827565b5b6000612af086828701612a74565b9350506020612b0186828701612a74565b9250506040612b12868287016129bf565b9150509250925092565b600081519050919050565b600082825260208201905092915050565b6000819050602082019050919050565b612b518161299e565b82525050565b6000612b6282612a01565b9050919050565b612b7281612b57565b82525050565b612b81816128b6565b82525050565b60a082016000820151612b9d6000850182612b48565b506020820151612bb06020850182612b69565b506040820151612bc36040850182612b69565b506060820151612bd66060850182612b48565b506080820151612be96080850182612b78565b50505050565b6000612bfb8383612b87565b60a08301905092915050565b6000602082019050919050565b6000612c1f82612b1c565b612c298185612b27565b9350612c3483612b38565b8060005b83811015612c65578151612c4c8882612bef565b9750612c5783612c07565b925050600181019050612c38565b5085935050505092915050565b60006020820190508181036000830152612c8c8184612c14565b905092915050565b612c9d8161299e565b82525050565b6000602082019050612cb86000830184612c94565b92915050565b600060208284031215612cd457612cd3612827565b5b6000612ce284828501612a74565b91505092915050565b600080fd5b600080fd5b7f4e487b7100000000000000000000000000000000000000000000000000000000600052604160045260246000fd5b612d2d82612932565b810181811067ffffffffffffffff82111715612d4c57612d4b612cf5565b5b80604052505050565b6000612d5f61281d565b9050612d6b8282612d24565b919050565b600067ffffffffffffffff821115612d8b57612d8a612cf5565b5b612d9482612932565b9050602081019050919050565b82818337600083830152505050565b6000612dc3612dbe84612d70565b612d55565b905082815260208101848484011115612ddf57612dde612cf0565b5b612dea848285612da1565b509392505050565b600082601f830112612e0757612e06612ceb565b5b8135612e17848260208601612db0565b91505092915050565b60008060408385031215612e3757612e36612827565b5b600083013567ffffffffffffffff811115612e5557612e5461282c565b5b612e6185828601612df2565b9250506020612e72858286016129bf565b9150509250929050565b60a082016000820151612e926000850182612b48565b506020820151612ea56020850182612b69565b506040820151612eb86040850182612b69565b506060820151612ecb6060850182612b48565b506080820151612ede6080850182612b78565b50505050565b600060a082019050612ef96000830184612e7c565b92915050565b612f08816128b6565b8114612f1357600080fd5b50565b600081359050612f2581612eff565b92915050565b60008060408385031215612f4257612f41612827565b5b6000612f5085828601612a74565b9250506020612f6185828601612f16565b9150509250929050565b600067ffffffffffffffff821115612f8657612f85612cf5565b5b612f8f82612932565b9050602081019050919050565b6000612faf612faa84612f6b565b612d55565b905082815260208101848484011115612fcb57612fca612cf0565b5b612fd6848285612da1565b509392505050565b600082601f830112612ff357612ff2612ceb565b5b8135613003848260208601612f9c565b91505092915050565b6000806000806080858703121561302657613025612827565b5b600061303487828801612a74565b945050602061304587828801612a74565b9350506040613056878288016129bf565b925050606085013567ffffffffffffffff8111156130775761307661282c565b5b61308387828801612fde565b91505092959194509250565b600080604083850312156130a6576130a5612827565b5b60006130b485828601612a74565b92505060206130c585828601612a74565b9150509250929050565b7f4e487b7100000000000000000000000000000000000000000000000000000000600052602260045260246000fd5b6000600282049050600182168061311657607f821691505b602082108103613129576131286130cf565b5b50919050565b7f4552433732313a20617070726f76616c20746f2063757272656e74206f776e6560008201527f7200000000000000000000000000000000000000000000000000000000000000602082015250565b600061318b6021836128f7565b91506131968261312f565b604082019050919050565b600060208201905081810360008301526131ba8161317e565b9050919050565b7f4552433732313a20617070726f76652063616c6c6572206973206e6f7420746f60008201527f6b656e206f776e6572206f7220617070726f76656420666f7220616c6c000000602082015250565b600061321d603d836128f7565b9150613228826131c1565b604082019050919050565b6000602082019050818103600083015261324c81613210565b9050919050565b7f4552433732313a2063616c6c6572206973206e6f7420746f6b656e206f776e6560008201527f72206f7220617070726f76656400000000000000000000000000000000000000602082015250565b60006132af602d836128f7565b91506132ba82613253565b604082019050919050565b600060208201905081810360008301526132de816132a2565b9050919050565b7f4e487b7100000000000000000000000000000000000000000000000000000000600052601160045260246000fd5b600061331f8261299e565b915061332a8361299e565b9250828201905080821115613342576133416132e5565b5b92915050565b60006133538261299e565b91507fffffffffffffffffffffffffffffffffffffffffffffffffffffffffffffffff8203613385576133846132e5565b5b600182019050919050565b7f4e487b7100000000000000000000000000000000000000000000000000000000600052603260045260246000fd5b7f4552433732313a20696e76616c696420746f6b656e2049440000000000000000600082015250565b60006133f56018836128f7565b9150613400826133bf565b602082019050919050565b60006020820190508181036000830152613424816133e8565b9050919050565b7f4552433732313a2061646472657373207a65726f206973206e6f74206120766160008201527f6c6964206f776e65720000000000000000000000000000000000000000000000602082015250565b60006134876029836128f7565b91506134928261342b565b604082019050919050565b600060208201905081810360008301526134b68161347a565b9050919050565b7f53656e6420656e6f75676820657468657220746f204c6973742e000000000000600082015250565b60006134f3601a836128f7565b91506134fe826134bd565b602082019050919050565b60006020820190508181036000830152613522816134e6565b9050919050565b7f4d616b652073757265207468652070726963652069736e2774206e656761746960008201527f7665000000000000000000000000000000000000000000000000000000000000602082015250565b60006135856022836128f7565b915061359082613529565b604082019050919050565b600060208201905081810360008301526135b481613578565b9050919050565b7f506c65617365207375626d6974207468652061736b696e67207072696365206660008201527f6f7220746865204e465420696e206f7264657220746f20707572636861736500602082015250565b6000613617603f836128f7565b9150613622826135bb565b604082019050919050565b600060208201905081810360008301526136468161360a565b9050919050565b7f4f6e6c79204f776e65722063616e2075706461746520746865206c697374696e60008201527f6720707269636500000000000000000000000000000000000000000000000000602082015250565b60006136a96027836128f7565b91506136b48261364d565b604082019050919050565b600060208201905081810360008301526136d88161369c565b9050919050565b600081905092915050565b60006136f5826128ec565b6136ff81856136df565b935061370f818560208601612908565b80840191505092915050565b600061372782856136ea565b915061373382846136ea565b91508190509392505050565b7f4552433732313a207472616e736665722066726f6d20696e636f72726563742060008201527f6f776e6572000000000000000000000000000000000000000000000000000000602082015250565b600061379b6025836128f7565b91506137a68261373f565b604082019050919050565b600060208201905081810360008301526137ca8161378e565b9050919050565b7f4552433732313a207472616e7366657220746f20746865207a65726f2061646460008201527f7265737300000000000000000000000000000000000000000000000000000000602082015250565b600061382d6024836128f7565b9150613838826137d1565b604082019050919050565b6000602082019050818103600083015261385c81613820565b9050919050565b7f45524337323155524953746f726167653a2055524920736574206f66206e6f6e60008201527f6578697374656e7420746f6b656e000000000000000000000000000000000000602082015250565b60006138bf602e836128f7565b91506138ca82613863565b604082019050919050565b600060208201905081810360008301526138ee816138b2565b9050919050565b60008190508160005260206000209050919050565b60006020601f8301049050919050565b600082821b905092915050565b6000600883026139577fffffffffffffffffffffffffffffffffffffffffffffffffffffffffffffffff8261391a565b613961868361391a565b95508019841693508086168417925050509392505050565b6000819050919050565b600061399e6139996139948461299e565b613979565b61299e565b9050919050565b6000819050919050565b6139b883613983565b6139cc6139c4826139a5565b848454613927565b825550505050565b600090565b6139e16139d4565b6139ec8184846139af565b505050565b5b81811015613a1057613a056000826139d9565b6001810190506139f2565b5050565b601f821115613a5557613a26816138f5565b613a2f8461390a565b81016020851015613a3e578190505b613a52613a4a8561390a565b8301826139f1565b50505b505050565b600082821c905092915050565b6000613a7860001984600802613a5a565b1980831691505092915050565b6000613a918383613a67565b9150826002028217905092915050565b613aaa826128ec565b67ffffffffffffffff811115613ac357613ac2612cf5565b5b613acd82546130fe565b613ad8828285613a14565b600060209050601f831160018114613b0b5760008415613af9578287015190505b613b038582613a85565b865550613b6b565b601f198416613b19866138f5565b60005b82811015613b4157848901518255600182019150602085019450602081019050613b1c565b86831015613b5e5784890151613b5a601f891682613a67565b8355505b6001600288020188555050505b505050505050565b7f4552433732313a20617070726f766520746f2063616c6c657200000000000000600082015250565b6000613ba96019836128f7565b9150613bb482613b73565b602082019050919050565b60006020820190508181036000830152613bd881613b9c565b9050919050565b7f4552433732313a207472616e7366657220746f206e6f6e20455243373231526560008201527f63656976657220696d706c656d656e7465720000000000000000000000000000602082015250565b6000613c3b6032836128f7565b9150613c4682613bdf565b604082019050919050565b60006020820190508181036000830152613c6a81613c2e565b9050919050565b600081519050919050565b600082825260208201905092915050565b6000613c9882613c71565b613ca28185613c7c565b9350613cb2818560208601612908565b613cbb81612932565b840191505092915050565b6000608082019050613cdb6000830187612a33565b613ce86020830186612a33565b613cf56040830185612c94565b8181036060830152613d078184613c8d565b905095945050505050565b600081519050613d218161285d565b92915050565b600060208284031215613d3d57613d3c612827565b5b6000613d4b84828501613d12565b91505092915050565b7f4e487b7100000000000000000000000000000000000000000000000000000000600052601260045260246000fd5b7f4552433732313a206d696e7420746f20746865207a65726f2061646472657373600082015250565b6000613db96020836128f7565b9150613dc482613d83565b602082019050919050565b60006020820190508181036000830152613de881613dac565b9050919050565b7f4552433732313a20746f6b656e20616c7265616479206d696e74656400000000600082015250565b6000613e25601c836128f7565b9150613e3082613def565b602082019050919050565b60006020820190508181036000830152613e5481613e18565b905091905056fea2646970667358221220bfd39a58fc9b1df670798e24f9dd8400906e2bba85d05f4bf96ea0084961117464736f6c63430008110033",
  "linkReferences": {},
  "deployedLinkReferences": {}
}